:100000000C9447050C946F050C946F050C946F05C8
:100010000C946F050C946F050C946F050C946F0590
:100020000C946F050C946F050C946F050C946F0580
:100030000C946F050C946F050C946F050C946F0570
:100040000C9487140C946F050C946F050C946F0539
:100050000C946F050C946F050C946F050C946F0550
:100060000C94D1140C946F052200FF2100000000B5
:1000700000003E5B4F5B3E3E6B4F6B3E1C3E7C3E4A
:100080001C183C7E3C181C577D571C1C5E7F5E1C58
:1000900000183C1800FFE7C3E7FF0018241800FF12
:1000A000E7DBE7FF30483A060E2629792926407F0C
:1000B000050507407F05253F5A3CE73C5A7F3E1C1B
:1000C0001C08081C1C3E7F14227F22145F5F005F07
:1000D0005F06097F017F006689956A6060606060E5
:1000E00094A2FFA29408047E040810207E20100829
:1000F000082A1C08081C2A08081E101010100C1EC4
:100100000C1E0C30383E3830060E3E0E0600000045
:10011000000000005F00000007000700147F147F4C
:1001200014242A7F2A122313086462364956205069
:100130000008070300001C2241000041221C002A85
:100140001C7F1C2A08083E08080080703000080840
:10015000080808000060600020100804023E5149B1
:10016000453E00427F400072494949462141494D80
:10017000331814127F1027454545393C4A49493107
:1001800041211109073649494936464949291E0086
:100190000014000000403400000008142241141430
:1001A000141414004122140802015909063E415D4D
:1001B000594E7C1211127C7F494949363E414141DA
:1001C000227F4141413E7F494949417F0909090157
:1001D0003E414151737F0808087F00417F41002064
:1001E00040413F017F081422417F404040407F0250
:1001F0001C027F7F0408107F3E4141413E7F090978
:1002000009063E4151215E7F09192946264949497F
:100210003203017F01033F4040403F1F2040201F29
:100220003F4038403F6314081463030478040361BB
:1002300059494D43007F41414102040810200041CB
:1002400041417F0402010204404040404000030756
:10025000080020545478407F2844443838444444AB
:1002600028384444287F385454541800087E090222
:1002700018A4A49C787F0804047800447D400020E2
:1002800040403D007F1028440000417F40007C0436
:100290007804787C080404783844444438FC1824F2
:1002A000241818242418FC7C0804040848545454C6
:1002B0002404043F44243C4040207C1C2040201C5B
:1002C0003C4030403C44281028444C9090907C4462
:1002D00064544C440008364100000077000000419F
:1002E00036080002010204023C2623263C1EA1A17E
:1002F00061123A4040207A38545455592155557965
:100300004122545478422155547840205455794024
:100310000C1E527212395555555939545454593985
:10032000555454580000457C410002457D4200016F
:10033000457C407D1211127DF0282528F07C545513
:1003400045002054547C547C0A097F49324949496C
:10035000323A4444443A324A4848303A4141217A98
:100360003A42402078009DA0A07D3D4242423D3D62
:100370004040403D3C24FF2424487E4943662B2FC7
:10038000FC2F2BFF0929F620C0887E090320545436
:1003900079410000447D413048484A32384040228B
:1003A0007A007A0A0A727D0D19317D2629292F28B3
:1003B000262929292630484D4020380808080808F1
:1003C000080808382F10C8ACBA2F102834FA0000DB
:1003D0007B000008142A142222142A140855005500
:1003E0000055AA55AA55AAFF55FF55FF000000FF6A
:1003F00000101010FF00141414FF001010FF00FF75
:100400001010F010F0141414FC001414F700FF0086
:1004100000FF00FF1414F404FC141417101F101034
:100420001F101F1414141F00101010F00000000003
:100430001F101010101F10101010F010000000FFFF
:10044000101010101010101010FF10000000FF14FA
:100450000000FF00FF00001F10170000FC04F41450
:10046000141710171414F404F40000FF00F7141408
:100470001414141414F700F7141414171410101F84
:10048000101F141414F4141010F010F000001F10BA
:100490001F0000001F14000000FC140000F010F00A
:1004A0001010FF10FF141414FF141010101F000080
:1004B0000000F010FFFFFFFFFFF0F0F0F0F0FFFF93
:1004C000FF0000000000FFFF0F0F0F0F0F38444424
:1004D0003844FC4A4A4A347E02020606027E027E04
:1004E0000263554941633844443C04407E201E2049
:1004F00006027E020299A5E7A5991C2A492A1C4CEE
:100500007201724C304A4D4D303048784830BC62F0
:100510005A463D3E494949007E0101017E2A2A2A68
:100520002A2A44445F444440514A444040444A518A
:10053000400000FF0103E080FF000008086B6B082B
:100540003612362436060F090F0600001818000070
:10055000001010003040FF0101001F01011E0019B2
:100560001D1712003C3C3C3C000000000000010351
:10057000070F1F3F7F0080C0E0F0F8FCFEDB40A4C7
:10058000A62EAF2000A1C8D300408DAED580A80014
:1005900000600000000000000000000000000000FB
:1005A000E00000000000000000000000000001E08A
:1005B0000000000000000000000000000001F0004A
:1005C00000000000000000000000000003F0000038
:1005D000000000000000000000000007F000000024
:1005E0000000000000000000000007F8000000000C
:1005F0000000000000000000000FF800000003C031
:10060000007E000001E0007F0FF800000003C00042
:10061000FE000001E000FFEFF800000003C000FE54
:10062000000001E000FFFFF800000003C000F00040
:1006300000000F007FFE7FC0000003C000F000003C
:10064000000F003FFE7FF83FF1FBCFFCFEF3BC3D07
:10065000EFE01FFE7FFF7FFBFFDFFEFEFFBC3DEFF5
:10066000E01FC6FFFF7FFBFFDFFEFEFFBC3DEFE0AC
:100670000FE3C7FE787BC3DE1EF0FFBC3DEF000733
:10068000FF87FC787BC3DE1EF0F83C3DEF0001FFE6
:10069000FFF0007BC3C01EF0F03C3DEF0001F37F94
:1006A000E03FFBC3CFFEF0F03C3DEF0003E33F80B3
:1006B0007FFBC3DFFEF0F03C3DEF0007E73C007836
:1006C0007BC3DE1EF0F03C3DEF0007FFBE00787BF1
:1006D000C3DE1EF0F03C3DEF0007FFFE00787BC359
:1006E000DE1EF0F03C3DEF000FFFFE007FFBFFDF62
:1006F000FEF0F03FFDEFE00FFFFF007FFBFFDFFEAE
:10070000F0F03FFDEFE00FF9FF003E79F9CF9EF0EA
:10071000F01F3DE7E01FF1FF0000000000000000B7
:10072000000000001F80FF007FFFFFFFFFFFFFFFB3
:10073000FFFFE01C007F007FFFFFFFFEB46D888D90
:1007400018E000001F007FFFFFFFFE95AD7DB5772D
:10075000E000000F007FFFFFFFFEA5AD9D8D19E0BB
:10076000000006007FFFFFFFFEB5ADEDB57EE000A7
:1007700000000000018000000000000000000003F5
:100780008000000000000000000007C00000000022
:10079000000000000007C000000000000000000092
:1007A0000FC00000000000000000001FE00000007B
:1007B0000000000000001FE000000000000000003A
:1007C000003FE00000000000000000003FF00000DB
:1007D000000000000000007FF000000000000000AA
:1007E0001FF87FF0000000000000003FFE7FF000D7
:1007F0000000000000003FFF7FF00000000000004C
:10080000001FFFFBE0000000000000000FFFF9FFE9
:10081000C00000000000000FFFF9FFF8000000001A
:10082000000007FFF1FFFF00000000000003FC7361
:10083000FFFF80000000000001FE3FFFFF8000007E
:1008400000000000FF1E0FFF000000000000007FFE
:10085000FE1FFC000000000000003FFFFFF800004A
:1008600000000000000FDFFFE000000000000000BB
:100870001F19FFC0000000000000003F3CFF000007
:100880000000000000007E7CF80000000000000076
:10089000007FFE7C0000000000000000FFFFFC0065
:1008A00000000000000000FFFFFE0000000000004C
:1008B0000000FFFFFE0000000000000001FFEFFE4F
:1008C0000000000000000001FFCFFE00000000005B
:1008D000000003FF07FE0000000000000003FC070B
:1008E000FE0000000000000003F003FE0000000016
:1008F000000000018000FE00000000000000000079
:10090000007E000000000000000000003E0000002B
:10091000000000000000000C000000000000078044
:1009200000FC000003C0000000078001FC00000381
:10093000C0000000078001FC000003C000000007A9
:100940008001E00000001E000000078001E00000C0
:10095000001E007FE3F79FF9FDE7787BDFC0FFF71C
:10096000FFBFFDFDFF787BDFC0FFF7FFBFFDFDFF91
:10097000787BDFC0F0F787BC3DE1FF787BDE00F0DD
:10098000F787BC3DE1F0787BDE0000F787803DE132
:10099000E0787BDE007FF7879FFDE1E0787BDE007B
:1009A000FFF787BFFDE1E0787BDE00F0F787BC3D15
:1009B000E1E0787BDE00F0F787BC3DE1E0787BDEAC
:1009C00000F0F787BC3DE1E0787BDE00FFF7FFBF7A
:1009D000FDE1E07FFBDFC0FFF7FFBFFDE1E07FFB54
:1009E000DFC07CF3F39F3DE1E03E7BCFC000000021
:1009F0000000000000000000FFFFFFFFFFFFFFFFFF
:100A0000FFFFC0FFFFFFFFFD68DB111A31C0FFFFD2
:100A1000FFFFFD2B5AFB6AEFC0FFFFFFFFFD4B5BA3
:100A20003B1A33C0FFFFFFFFFD6B5BDB6AFDC000BD
:100A300000000023002600290000000000240027F9
:100A4000002A0000000000250028002B00040404F8
:100A50000404040404020202020202030303030367
:100A60000301020408102040800102040810200144
:100A70000204081020000000080002010000030426
:100A800007000000000000000000F015E719112425
:100A90001FBECFEFD8E0DEBFCDBF22E0A6E4B1E0BD
:100AA00001C01D92AB38B207E1F711E0A0E0B1E060
:100AB000ECE6F9E302C005900D92A634B107D9F730
:100AC00015E0C6E4D5E004C02197FE010E94A51AF6
:100AD000C534D107C9F70E9489160C94A91C0C943F
:100AE00000000895833081F028F4813099F082303D
:100AF000A9F008958730A9F08830C9F08430B1F4A6
:100B0000809180008F7D03C0809180008F778093DB
:100B10008000089584B58F7784BD089584B58F7D56
:100B2000FBCF8091B0008F778093B00008958091C3
:100B3000B0008F7DF9CF1F93CF93DF93282F30E044
:100B4000F901EB58F54F8491F901EF59F54FD49124
:100B5000F901E35BF54FC491CC23A9F0162F811165
:100B60000E947205EC2FF0E0EE0FFF1FED5BF54FDA
:100B7000A591B4918FB7F894EC91111108C0D0955C
:100B8000DE23DC938FBFDF91CF911F910895DE2B81
:100B9000F8CFCF93DF9390E0FC01EF59F54F24910C
:100BA000835B954FFC0184918823D1F090E0880FFE
:100BB000991FFC01E75CF54FA591B491FC01ED5B39
:100BC000F54FC591D49161110EC09FB7F8948C91E7
:100BD000E22FE0958E238C932881E223E8839FBF48
:100BE000DF91CF9108958FB7F894EC91E22BEC93BD
:100BF0008FBFF6CF3FB7F894809103029091040223
:100C0000A0910502B091060226B5A89B05C02F3F12
:100C100019F00196A11DB11D3FBFBA2FA92F982F22
:100C20008827BC01CD01620F711D811D911D42E01D
:100C3000660F771F881F991F4A95D1F708958F92E5
:100C40009F92AF92BF92CF92DF92EF92FF924B01B1
:100C50005C010E94FA056B017C010E94FA056C1987
:100C60007D098E099F09683E734081059105A8F3AF
:100C700021E0821A9108A108B10888EEC80E83E02D
:100C8000D81EE11CF11C81149104A104B10429F7C0
:100C9000FF90EF90DF90CF90BF90AF909F908F909C
:100CA000089508950895AF92BF92CF92DF92EF9288
:100CB000FF920F931F93CF93DF936C017B018B0106
:100CC000040F151FEB015E01AE18BF08C017D10756
:100CD00059F06991D601ED91FC910190F081E02DE0
:100CE000C6010995892B79F7C501DF91CF911F9135
:100CF0000F91FF90EF90DF90CF90BF90AF9008954D
:100D0000EF92FF920F931F93CF93DF93EC01EC8050
:100D1000FD806E157F050CF070C057FF04C0240FD6
:100D2000351F50E040E08E819F81FA01E20FF31FF2
:100D30008E179F071CF49C01241B350B12161306FB
:100D40000CF05BC0922F842F8695869586958E9D9C
:100D5000D0018F9DB00D11246A0F7B1FAF8DB8A1FC
:100D6000A60FB71F477049F188E0841B482F682FF2
:100D700070E0FB01EB58FA4FE491281708F063C0CC
:100D8000621B71092FEF30E002C0359527956A95F7
:100D9000E2F7E2230130110539F0B0F1023011051C
:100DA00061F58C91E82702C08C91E82BEC939417A5
:100DB00020F12C813D81A20FB31FE92FE41BE83005
:100DC00078F00230110521F58E2F9C9190959C931F
:100DD0002C813D81A20FB31F88508830B0F7E77097
:100DE000EE2359F0F0E0E359FA4FE4910130110598
:100DF000F9F010F10230110519F1DF91CF911F9137
:100E00000F91FF90EF900895E0958C91E823CECF5D
:100E100081E00115110509F480E081959E2F8C93E6
:100E20002C813D81A20FB31F98509830C0F7D7CFC7
:100E30008C91E82BEC93E1CFE0958C91E823FACFED
:100E40008C91E827F7CF0130110509F4ADCFE0F21E
:100E50000230110509F4A5CFAE0DBF1DAECF0F9323
:100E60001F93CF93DF9377FF04C0260F371F70E0E7
:100E700060E0DC011496CD91DC91FB01E20FF31FE1
:100E8000CE17DF071CF49E01261B370B1216130624
:100E90004CF5FA0157FD3796A3E0F595E795AA952D
:100EA000E1F7EC9FD001ED9FB00DFC9FB00D112438
:100EB0006A0F7B1FDC015F96ED91FC91E60FF71F37
:100EC0004770552781E090E001C0880F4A95EAF706
:100ED000482F0130110559F0A8F02E0F3F1F0230A6
:100EE0001105E1F0DF91CF911F910F9108952E0F21
:100EF0003F1FE217F307B1F38191DF011197842BB4
:100F00008C93F7CF80952E0F3F1FE217F30751F315
:100F10009191DF01119798239C93F7CFE217F30784
:100F200009F38191DF01119784278C93F7CF0F93F9
:100F30001F93FA01DC0156964C9156974230E9F026
:100F40004330A1F1413061F514964D915C91DA0185
:100F5000AE1BBF0BFD01E21BF30B77FD0BC0DC01E9
:100F600016964D915C916417750724F4AB01BF018F
:100F70000E942F071F910F91089514964D915C9137
:100F8000DA01A61BB70BBD0161507109DC01169691
:100F90004D915C91DA01AE1BBF0BFD01E21BF30B1F
:100FA00077FDE8CFAF010E948006E4CF16964D9101
:100FB0005C91DA01A61BB70BBD0161507109CDCF61
:100FC0000F931F93FA01DC0156964C9156974230CD
:100FD000A9F0433091F1413019F514964D915C918F
:100FE000DA01AE1BBF0BFD013197F7FD04C0AB0169
:100FF000BF010E9480061F910F91089514964D9194
:101000005C91DA01A61BB70BBD01DC0116964D9170
:101010005C91DA01AE1BBF0BFD013197621B730BB4
:10102000F7FDE9CFDC0116964D915C91E417F507C9
:1010300014F7AF010E942F07DECF16964D915C91F9
:10104000DA01A61BB70BBD01621B730BCECFFC01EF
:1010500077FD64C080859185681779070CF05EC0C4
:1010600057FD5CC082859385481759070CF056C020
:1010700086898230B1F0833029F1813041F4848156
:101080009581841B950BAB01BC0161507109213026
:10109000310509F108F443C02230310509F463C079
:1010A000089584819581DC01A61BB70BBD016150B9
:1010B000710986819781DC01A41BB50BAD014150FC
:1010C0005109E5CF86819781861B970BBA01AC0148
:1010D00041505109DCCFCA0157FD0796A3E0959511
:1010E0008795AA95E1F7A481B5818A9F90018B9F8E
:1010F000300D9A9F300D1124620F731F078CF0A1E1
:10110000E02DE60FF71F4770552721E030E001C0C2
:10111000220F4A95EAF78081822B80830895CA01C5
:1011200057FD079633E0959587953A95E1F7A481A9
:10113000B5818A9F90018B9F300D9A9F300D1124AD
:10114000620F731F078CF0A1E02DE60FF71F4770A9
:10115000552781E090E001C0880F4A95EAF7809515
:1011600090818923DACFCA0157FD079623E0959530
:1011700087952A95E1F7A481B5818A9F90018B9F7D
:10118000300D9A9F300D1124620F731F078CF0A150
:10119000E02DE60FF71F4770552721E030E001C032
:1011A000220F4A95EAF780818227B7CF08958EBD36
:1011B00000000DB407FEFDCF8EB508958CBD9DBD1A
:1011C00008950895FC016370668B84819581268162
:1011D0003781613039F0633029F091878087338718
:1011E00022870895318720879387828708952F92D9
:1011F0003F924F925F926F927F928F929F92AF92A7
:10120000BF92CF92DF92EF92FF920F931F93CF93F3
:10121000DF93CDB7DEB76A970FB6F894DEBF0FBE87
:10122000CDBF9A8F898F7A8369834A01D22E18871E
:101230000F833701BC2CDC0159962D913C915A97B4
:101240002115310509F015C118968D919C911997BA
:10125000681779070CF0D7C11A968D919C914817A1
:1012600059070CF0D0C14C2C512CB6E0CB9E600D30
:10127000711D11247C876B87161617060CF0C3C1ED
:10128000EA2DF0E0FA87E98793E0EE0FFF1F9A95C9
:10129000E1F7F88BEF87CF01840F951F1816190619
:1012A0000CF0B1C1A98DBA8D58968C91811104C0F2
:1012B000BFEABD1508F4D394A98DBA8DED91FC91C8
:1012C00011970284F385E02DCD010995B5E0DB9EF1
:1012D000C0011124E981FA81FC83EB83312C212C9C
:1012E0009C0123593F4F388F2F8B4A2D50E05E8B46
:1012F0004D8BEF89F88DE20DF31D44919E828D8216
:10130000D12CC12C69817A81620D731D7A8B698B16
:10131000842F90E09C8B8B8BE98DFA8DA081B1811D
:1013200040FF82C0F1E0BF126FC0AF126DC01C96CB
:10133000ED91FC912F813885A4014C0D5D1D6989CB
:101340007A89898D9A8D0995EB89FC89F595E795C0
:101350004E2F5FEFC51AD50A6D817E818D899E89DA
:10136000680F791F7E836D8398E0C916D10481F6DA
:10137000AFEF2A1A3A0AEB81FC81E40DF51DFC83DC
:10138000EB83F5E02F16310409F0B3CF2F813885B8
:1013900026153705B9F0A98DBA8DED91FC91B1E014
:1013A000BB1257C0AB1255C069817A816B5F7F4F0A
:1013B0000088F189E02D830128E030E0A401898DC7
:1013C0009A8D0995A98DBA8DED91FC91119706889A
:1013D000F789E02DCD016A960FB6F894DEBF0FBEF7
:1013E000CDBFDF91CF911F910F91FF90EF90DF90D4
:1013F000CF90BF90AF909F908F907F906F905F90B5
:101400004F903F902F9009941E96ED91FC91EF80A4
:10141000F88409851A8592014D815E816B817C81FA
:10142000898D9A8D099590CF2F813885261537059E
:1014300009F48ACF31E0B31207C0A31205C01C968D
:10144000ED91FC91930178CF1E96ED91FC91730183
:10145000E0CF6B857C85641975090684F785E02DDE
:1014600073010F8518899201A401898D9A8D0995C0
:10147000A9CFF90134969491329745915491D91A94
:10148000B7E0DB9E400D511D1124F90125913491E7
:101490003C8B2B8BFA0125903490FA013296749094
:1014A00031963491398B329664903196449041E074
:1014B0004C1518F04A1508F07FC0662D062C000C5C
:1014C000770B7C836B83842D042C000C990B9E83FB
:1014D0008D83A98DBA8DED91FC9111970284F385CE
:1014E000E02DCD010995512CD12CC12CEA2DF0E035
:1014F000FA87E9872B2D30E03C872B87A401440D28
:10150000511D47FC5A95588F4F8B69817A81660D22
:10151000711D67FC7A957E876D877989C71608F0FB
:1015200051CF2C2D30E04D815E81420F531FA98594
:10153000BA854A9FC0014B9F900D5A9F900D112470
:10154000FC01E80DF91DF88BEF87852D612C4F8983
:10155000588D420F531F5E8B4D8B671408F050C09F
:1015600044244394480E877041F4C1010196EB89ED
:10157000FC89E20DF31DD4901C01D7FE19C0A98D82
:10158000BA8DED91FC91662D70E0B1E0BB1219C0EF
:10159000AB1217C02D853E85620F731F0484F5853D
:1015A000E02D2F8138854D895E89898D9A8D099529
:1015B000DD0C6394842DD1CF1E821D821C821B8280
:1015C00088CF4B815C81640F751FAB85BC856A9F9A
:1015D000C0016B9F900D7A9F900D112469817A81D3
:1015E000680F791F0684F785E02DEF80F884098560
:1015F0001A859D014F855889898D9A8D0995D8CF77
:10160000570CC3948ACF6A960FB6F894DEBF0FBE0C
:10161000CDBFDF91CF911F910F91FF90EF90DF90A1
:10162000CF90BF90AF909F908F907F906F905F9082
:101630004F903F902F9008958F929F92AF92CF92AC
:10164000EF92FF920F931F93CF93DF93EC01262F1E
:10165000898D9A8D009709F051C06A30D1F41D86AA
:101660001C868D8948E0849F900111248E859F857A
:10167000820F931F9F878E8781E090E0DF91CF914B
:101680001F910F91FF90EF90CF90AF909F908F9010
:1016900008956D3089F3CC88AD888F898823C1F097
:1016A0008C859D8536E0C39E800D911D1124488553
:1016B00059854817590764F44E855F851D861C8639
:1016C00038E0A39EC0011124840F951F9F878E8749
:1016D000EA88FB88088919894E855F856C857D8538
:1016E000CE010E94F7082C898C859D8546E0249FB9
:1016F000800D911D11249D878C87BECF6A3069F4BF
:101700001D861C86FC013896E4912D898E859F8567
:10171000E29F800D911D1124ADCF6D3009F4ACCF47
:10172000FC0134963491631708F4A6CF3296E49105
:10173000E61708F4A1CFFC01329685909490462FCD
:10174000431B342F47E0349F800C911C1124F4017B
:10175000329634913196E4913323A9F1EE2399F135
:10176000CC88F4013596E491AD884F89442301F18A
:101770000E2E000CFF0BE30FF11DCE9EA001CF9E9D
:10178000500D11246C857D85460F571F688579851E
:10179000641775076CF44E855F851D861C86FC01F9
:1017A0003896E491AE9E400D511D11245F874E87FF
:1017B000EA88FB88088919894E855F856C857D8557
:1017C000CE010E94F708F4013496E4912C898C85AF
:1017D0009D85E29F800D911D11248DCF6F927F9288
:1017E0008F929F92AF92BF92CF92DF92EF92FF9231
:1017F0000F931F93CF93DF93EC016B015A013901D3
:101800004801E881F9810284F385E02D0995E8819A
:10181000F9810288F389E02D87019301A501B601C2
:10182000CE010995A501480D591D41505109E88186
:10183000F9810288F389E02D9301B601CE01099563
:10184000E881F9810088F189E02D9401A501B601B4
:10185000CE010995C60CD71CB60161507109E8810B
:10186000F9810088F189E02D9401A501CE01099547
:10187000E881F9810688F789E02DCE01DF91CF91CB
:101880001F910F91FF90EF90DF90CF90BF90AF909E
:101890009F908F907F906F9009946F927F928F921C
:1018A0009F92AF92BF92CF92DF92EF92FF920F93EF
:1018B0001F93CF93DF935C01EB016A01490138016B
:1018C0008701DC01ED91FC916217730719F564162D
:1018D00075062CF0962D872D3A01C92ED82E96012B
:1018E000261937092F5F3F4F048CF58DE02DA3019A
:1018F000BE01C5010995DF91CF911F910F91FF9016
:10190000EF90DF90CF90BF90AF909F908F907F909F
:101910006F9008954615570591F42617370724F060
:10192000892D4B01C22FD82F9E01281939092F5F0D
:101930003F4F068CF78DE02DA601B401DACF02846B
:10194000F385E02D0995D501ED91FC910488F58989
:10195000E02D83019401A601BE01C5010995D501C1
:10196000ED91FC910688F789E02DC501DF91CF91BB
:101970001F910F91FF90EF90DF90CF90BF90AF90AD
:101980009F908F907F906F900994EF92FF920F93AA
:101990001F93DC011A960D911C911B9718962D919F
:1019A0003C911997ED91FC9100A0F1A1E02D7B01F4
:1019B00050E040E070E060E009951F910F91FF90CA
:1019C000EF9008954F925F926F927F928F929F92C5
:1019D000AF92BF92CF92DF92EF92FF920F931F933D
:1019E000CF93DF936C012B015A0139014801DC01CF
:1019F000ED91FC910284F385E02D0995E201640CE0
:101A0000751CD601ED91FC91C615D7055CF40088D4
:101A1000F189E02D87019401A501BE01C601099558
:101A20002196EFCF0688F789E02DC601DF91CF918F
:101A30001F910F91FF90EF90DF90CF90BF90AF90EC
:101A40009F908F907F906F905F904F9009948F92AE
:101A50009F92AF92BF92CF92DF92EF92FF920F933D
:101A60001F93CF93DF93EC015B014A016901E88189
:101A7000F9810284F385E02D099595012C0D3D1D1A
:101A800021503109E881F9810488F589E02D780138
:101A90008401A401B501CE010995E881F981068888
:101AA000F789E02DCE01DF91CF911F910F91FF902B
:101AB000EF90DF90CF90BF90AF909F908F90099460
:101AC0008F929F92AF92BF92CF92DF92EF92FF924E
:101AD0000F931F93CF93DF93EC015B014A016901E0
:101AE0007801E881F9810284F385E02D0995C80C1D
:101AF000D91C860101501109E881F9810488F58912
:101B0000E02D9501A401B501CE010995E881F98187
:101B10000688F789E02DCE01DF91CF911F910F91BB
:101B2000FF90EF90DF90CF90BF90AF909F908F90FD
:101B30000994EF92FF920F931F93DC01ED91FC91BA
:101B400000A0F1A1E02D09951F910F91FF90EF905A
:101B500008950F931F93DC01ED91FC91068CF78D96
:101B6000E02D09951F910F9108950F931F93DC01AC
:101B7000ED91FC91048CF58DE02D09951F910F914D
:101B80000895DC01ED91FC910084F185E02D09942C
:101B90003F924F925F926F927F928F929F92AF92FD
:101BA000BF92CF92DF92EF92FF920F931F93CF934A
:101BB000DF935C017B014A016901390187E0680E0E
:101BC000711C93E0759467949A95E1F72B01400E90
:101BD000511E10E000E0312CD0E0C0E0CE01877053
:101BE0009927330C892B59F4FE0183E0F595E7958D
:101BF0008A95E1F7E00FF11FE80DF91D349037FEEB
:101C00000AC021E030E0A701B5016C0F7D1F87E419
:101C100092E00E94C10D2196CC16DD06F9F68FEFF9
:101C2000E81AF80A060D171DE414F504A9F6DF9169
:101C3000CF911F910F91FF90EF90DF90CF90BF90C9
:101C4000AF909F908F907F906F905F904F903F905C
:101C500008952F923F924F925F926F927F928F9250
:101C60009F92AF92BF92CF92DF92EF92FF920F932B
:101C70001F93CF93DF9300D000D000D0CDB7DEB755
:101C80003C016A013E832D83FC82EB825801A41A39
:101C9000B50AB7FE03C0B194A194B1088D809E80AF
:101CA000861A970A97FE03C09194819491088A142A
:101CB0009B045CF0902F812F0D811E819D838E836C
:101CC0009C2D8D2D6B01692F782F0C151D055CF057
:101CD0009D818E817E836D83692F782F902F812F38
:101CE0008601C92ED82E1601201A310A2B012D810A
:101CF0003E81421A530A57FE03C051944194510841
:101D0000710137FE03C03FEFE31AF30AF594E7943D
:101D10008D819E81861797075CF5A1E0B0E0BA83BC
:101D2000A983C016D1064CF1D301ED91FC91048436
:101D3000F585E02D2B813C81A8016D817E818A147F
:101D40009B041CF04D815E81B801C3010995E41824
:101D5000F508F7FE0AC02D813E8189819A81280FFE
:101D6000391F3E832D83E20CF31C0F5F1F4FD9CF29
:101D70002FEF3FEF3A832983D4CF26960FB6F894FE
:101D8000DEBF0FBECDBFDF91CF911F910F91FF90AE
:101D9000EF90DF90CF90BF90AF909F908F907F900B
:101DA0006F905F904F903F902F90089508952091ED
:101DB000AC01260F3327331F21323105ECF420917B
:101DC000D001FC0190E080E0243069F082E00895C9
:101DD000A091AC012191AC0144575E4FA40FB52FE7
:101DE000B11D2C930196861798F38091AC01680F72
:101DF0006093AC0180E0089581E008951092D001D5
:101E000081E08093D2011092D10161E082E10E94D1
:101E10009B0561E083E10E949B05E9EBF0E0808196
:101E20008E7F808380818D7F808388E48093B8005B
:101E300085E48093BC000895CF93DF9391E0909365
:101E40008B018823B9F0C091B800D091BA0080917D
:101E5000BC008A7B8093BC0060E082E10E949B050D
:101E600060E083E10E949B050E94FE0ED093BA00C1
:101E7000C093B800DF91CF910895E091FC0180916B
:101E8000FB01E81730F4F0E0EA59FE4F808190E062
:101E900008958FEF9FEF08959091FC018091FB01D1
:101EA0002FEF3FEF981748F4E92FF0E0EA59FE4F83
:101EB000208130E09F5F9093FC01C90108958091DB
:101EC000FB019091FC01891B990B0895CF92DF9241
:101ED000EF92FF920F931F93CF93DF937C01CB017F
:101EE0008A0120910A02222389F0EB016B01C40EC2
:101EF000D51ECC15DD0569F06991D701ED91FC91F6
:101F00000190F081E02DC7010995F3CF642F0E9465
:101F1000D70EC801DF91CF911F910F91FF90EF90E5
:101F2000DF90CF900895CF93DF931F92CDB7DEB7A8
:101F3000698320910A022223F9F0209107022032BE
:101F400058F021E030E0FC013383228390E080E010
:101F50000F90DF91CF91089580910802E82FF0E073
:101F6000EA5BFE4F998190838F5F80930802809394
:101F7000070281E090E0ECCF61E0CE0101960E9483
:101F8000D70EF7CFCF92DF92EF92FF920F931F936E
:101F9000CF93DF93D091070281E0D13208F09CC04B
:101FA000C09109020E94FA056B017C018091D00169
:101FB00081116CC082E08093D00181E08093D201D6
:101FC0008FEF8093CF011092F401D093F301A6E438
:101FD000B1E0E3EDF1E080E0D8138DC01092F5019F
:101FE0008091F501CC0FC82BC093F5018091D101F0
:101FF000813009F084C01092D1010E94FA056B0172
:102000007C018091F5018093BB00809187019091C4
:102010008801A0918901B0918A01892B8A2B8B2B91
:10202000A1F00E94FA05009187011091880120918A
:10203000890130918A016C197D098E099F09061763
:1020400017072807390708F442C08091BC0083FDB8
:10205000D8CF85EC8093BC000E94FA056B017C010F
:102060008091D001823009F44CC08091CF018F3F24
:1020700009F469C08091CF01803209F466C0809173
:10208000CF01803309F463C084E026C080918701CA
:1020900090918801A0918901B0918A01892B8A2BA6
:1020A0008B2B09F483CF0E94FA05009187011091D0
:1020B00088012091890130918A016C197D098E096E
:1020C0009F09061717072807390708F06FCF809177
:1020D00086010E941C0F85E01092080210920702F0
:1020E00010920A02DF91CF911F910F91FF90EF9014
:1020F000DF90CF9008959D9191938F5F6DCF85EE86
:10210000A9CF8091870190918801A0918901B09118
:102110008A01892B8A2B8B2B09F4A2CF0E94FA0506
:1021200000918701109188012091890130918A01E5
:102130006C197D098E099F090617170728073907AB
:1021400008F08ECFC4CF80E0C7CF82E0C5CF83E058
:10215000C3CFEF92FF920F931F93CF93DF937C0136
:10216000C62F8091640290916502009709F459C0CE
:102170002091680231E030930A0220930902109204
:10218000080210920702DC01ED91FC910190F081B0
:10219000E02D60E009958701EE24E394F12CD1E075
:1021A000C1508091640290916502CF3F91F1B0E2FD
:1021B000EB16F104D8F00E94C20F80916402909156
:1021C000650220916802D0930A02209309021092BE
:1021D000080210920702DC01ED91FC910190F08160
:1021E000E02D60E00995EE24E394F12C80916402E7
:1021F00090916502F8016491DC01ED91FC910190F0
:10220000F081E02D0995BFEFEB1AFB0A0F5F1F4F1E
:10221000C7CFDF91CF911F910F91FF90EF900C945A
:10222000C20FE0917402F0917502908180917A0260
:102230008095892380838701C15008F438C0F80154
:1022400084912091620230916302232B29F00E9435
:10225000D7080F5F1F4FF0CF28E030E040E8E09153
:102260007002F091710290917802582F5423D9F0A6
:102270005081952B9083E0917202F09173029081CE
:1022800050917902952B9083E0917202F091730244
:102290005081909179029095952390834695215095
:1022A0003109E9F6D6CF508190959523E3CFDF91A0
:1022B000CF911F910F91FF90EF9008951F93CF93AF
:1022C000DF93EC018D8D9E8D009721F1162F29A1B2
:1022D00031E030930A022093090210920802109212
:1022E0000702DC01ED91FC910190F081E02D60E0AE
:1022F00009958D8D9E8DDC01ED91FC910190F08111
:10230000E02D612F09958D8D9E8DDF91CF911F91CD
:102310000C94C20FADA5BEA59C918BA98095892375
:102320008C938B8D9C8D892B31F0862FDF91CF91F3
:102330001F910C94D70828E030E080E8A9A5BAA541
:1023400099A9462F4823C1F04C91942B9C93ABA59F
:10235000BCA59C914AA9942B9C93ABA5BCA54C9180
:102360009AA9909594239C9386952150310931F731
:10237000DF91CF911F9108954C9190959423E6CFD2
:102380001F93CF93DF93EC01162F8D8D9E8D892B9C
:10239000B1F12DA93EA94FA958AD60E074E284EFD8
:1023A00090E00E94831A2051310941095109569544
:1023B0004795379527952093B80066EA111167EA8B
:1023C000CE010E945E118D8D9E8D892B41F129AD2C
:1023D0003AAD4BAD5CAD60E074E284EF90E00E94FA
:1023E000831A20513109410951095695479537956E
:1023F00027952093B800DF91CF911F9108958B8D81
:102400009C8D892B21F08EAD9FAD0E94DE08EFA53B
:10241000F8A990818CA9809589238083CECFEFA5E0
:10242000F8A980819CA9892B8083E5CF90E080E08A
:102430000895FC01862F608371831682158226E23F
:1024400032E13483238360E00C94C905CF93C091BB
:1024500000016C2F8DE00E949B0581E0C827C0938E
:102460000001CF91089520914D0230914E02C90193
:10247000079697FD079623E0959587952A95E1F7AE
:1024800020914B0230914C02829FA001839F500DFE
:10249000929F500D112470E060E08091660290914F
:1024A00067020C949B1C0F931F93CF93DF93EC0157
:1024B0008B0186E090E00E94AB1AFC01118300833F
:1024C000138212821582148288819981009769F49F
:1024D000FB83EA83FD83EC83019699838883CE0195
:1024E000DF91CF911F910F910895AC81BD81B3838E
:1024F000A2831596FC93EE931497ECCF0F931F9342
:10250000CF93DF93EC018B0186E090E00E94AB1A41
:10251000FC01118300831382128215821482888148
:102520009981009769F4FB83EA83FD83EC8301962C
:1025300099838883CE01DF91CF911F910F910895E8
:10254000AC81BD81B383A2831596FC93EE9314975F
:10255000ECCF0E948D1C85ED8093BC00809187019B
:1025600090918801A0918901B0918A010796A11DDF
:10257000B11D23E0B695A795979587952A95D1F734
:102580002091BC0024FD03C01092D0010895409119
:102590008701509188016091890170918A01452BD2
:1025A000462B472B69F30097A105B10541F02AE2BC
:1025B0002A95F1F700C00197A109B109E1CF8091F7
:1025C00086010C941C0F9F92AF92BF92CF92DF9224
:1025D000EF92FF920F931F93CF93DF93CDB7DEB7A8
:1025E00062970FB6F894DEBF0FBECDBFDB01129627
:1025F000ED91FC9190E080E0309751F020813181A5
:102600002530310529F00480F581E02D0196F4CFC5
:10261000FB01208131812817390711F48FEF9FEFDB
:102620004AE09E012F5F3F4F7901B9010E94171ABE
:10263000F70101900020E9F731978F010E191F096A
:10264000B8016F5F7F4F90E080E00E94D01B6C016B
:10265000009709F4A9C0DC011C92B7010E94A21CDA
:10266000A801B60187E492E00E94530680916402BB
:1026700090916502892B09F49AC020917C023091D7
:102680007D0240917E0250917F0260E074E284EF0F
:1026900090E00E94831A2051310941095109569551
:1026A0004795379527952093B80065E088E690E038
:1026B0000E94A91060914B02615087E492E00E9451
:1026C0005E1120914D0230914E02C901079697FD8F
:1026D000079623E0959587952A95E1F720914B027F
:1026E00030914C02829F7001839FF00C929FF00CFE
:1026F000112400916602109167028091640290910A
:102700006502E00EF11E009709F4A1C02091680255
:1027100031E030930A0220930902109208021092CD
:102720000702DC01ED91FC910190F081E02D60E465
:102730000995580101E010E0992493948091640276
:1027400090916502AE14BF0409F448C0003211052F
:10275000D0F00E94C20F8091640290916502209196
:10276000680290920A0220930902109208021092C5
:102770000702DC01ED91FC910190F081E02D60E415
:10278000099501E010E08091640290916502F501E5
:1027900061915F01DC01ED91FC910190F081E02DF0
:1027A00009950F5F1F4FCACF10E000E059CF80910D
:1027B000620290916302892B31F0809185029091A1
:1027C00086020E94DE08E0917602F0917702908105
:1027D00080917B0280958923808367CF0E94C20FFE
:1027E0008091640290916502892B09F474C0209154
:1027F000800230918102409182025091830260E018
:1028000074E284EF90E00E94831A2051310941095B
:10281000510956954795379527952093B800C114CF
:10282000D10409F462C0C60162960FB6F894DEBF07
:102830000FBECDBFDF91CF911F910F91FF90EF9011
:10284000DF90CF90BF90AF909F900C94471BE0918A
:102850007402F0917502808190917A02892B8083B5
:10286000E016F10609F4BCCFF80181918F012091A7
:10287000620230916302232B19F00E94D708F0CF37
:1028800028E030E040E8E0917002F0917102909110
:102890007802542F5823D9F05081952B9083E091E2
:1028A0007202F0917302908150917902952B90837E
:1028B000E0917202F09173025081909179029095AB
:1028C00095239083469521503109E9F6C9CF50816F
:1028D00090959523E3CFE0917602F0917702808185
:1028E00090917B02892B80839ACF62960FB6F894E1
:1028F000DEBF0FBECDBFDF91CF911F910F91FF9033
:10290000EF90DF90CF90BF90AF909F9008951F926F
:102910000F920FB60F9211242F933F938F939F9393
:10292000AF93BF938091FF0190910002A0910102AB
:10293000B09102023091FE0123E0230F2D3758F5AC
:102940000196A11DB11D2093FE018093FF0190937C
:102950000002A0930102B0930202809103029091C1
:102960000402A0910502B09106020196A11DB11DBD
:102970008093030290930402A0930502B093060291
:10298000BF91AF919F918F913F912F910F900FBE6B
:102990000F901F90189526E8230F0296A11DB11DD8
:1029A000D2CF1F920F920FB60F9211242F933F9305
:1029B0004F935F936F937F938F939F93AF93BF9347
:1029C000EF93FF938091B900887F803609F44AC065
:1029D000F0F5883209F4A7C018F5803109F49BC0DE
:1029E000B8F4882309F4F9C0883009F494C0FF9141
:1029F000EF91BF91AF919F918F917F916F915F9177
:102A00004F913F912F910F900FBE0F901F901895EF
:102A1000883109F488C0803251F78093CF0114C007
:102A2000803409F49DC040F48033B9F38833F9F65B
:102A30008093CF0185ECB0C0803509F485C088351E
:102A400009F496C0883499F60E94AB12D0CF883929
:102A500009F48CC038F5883729F050F4883611F025
:102A6000803729F683E08093D0011092CE0157C0C1
:102A7000883809F47BC0803919F0803809F0B7CF65
:102A80008091CE01803208F071C0E091CE0181E0EA
:102A90008E0F8093CE018091BB00F0E0E255FE4F97
:102AA00080833DC0803B39F0E0F4803A09F479C07E
:102AB000883A09F09CCF84E08093D0011092AD0158
:102AC0001092AC01E091F901F091FA010995809121
:102AD000AC0181110FC081E08093AC0110928C0198
:102AE00009C0803C09F4A6CF883C09F4A3CF883BF9
:102AF00009F07DCFE091AD0181E08E0F8093AD01B3
:102B0000F0E0E457FE4F80818093BB009091AD01CF
:102B10008091AC0129C08091F5018093BB0085ECC8
:102B20008093BC0064CF9091F4018091F3019817D9
:102B300058F5E091F40181E08E0F8093F401F0E00C
:102B4000ED52FE4F8081E9CFE091F40181E08E0FDC
:102B50008093F4018091BB00F0E0ED52FE4F808342
:102B60009091F4018091F3019817C8F285E8D8CFCD
:102B7000E091F40181E08E0F8093F4018091BB001D
:102B8000F0E0ED52FE4F80838091D20181115CCF45
:102B900081E08093D10184EA8093BC001092D0013F
:102BA00026CF85EC8093BC001092D0018091CE019D
:102BB000803230F4E091CE01F0E0E255FE4F108219
:102BC0006091CE0170E0E091F701F091F8018EEA9A
:102BD00091E009951092CE010ACF1092CF0134CF27
:102BE000ABE3B2E013961C921E92129748EE53E0AC
:102BF00060E070E014964D935D936D937C9317970E
:102C00008BE091E011969C938E93E7E4F2E01382BF
:102C1000128220E830E03583248380E490E09783BB
:102C200086833187208793878287168A1586148644
:102C30001786168621E0258B248B8FEF9FEF938BD1
:102C4000828B918B808B278B108E128E118E2DE1B3
:102C500031E031832083148E138EB68FA58F10A29E
:102C6000178E2FEF24A325A326A327A320A740E890
:102C70005AE166E070E045AB56AB67AB70AF40EA37
:102C800056E861E070E041AF52AF63AF74AF20E54A
:102C900026AF17AEE4E3F2E09183808312821682BE
:102CA000158214821382EDE2F2E091838083128216
:102CB0001682158214821382E6E2F2E09183808309
:102CC00012821682158214821382EFE1F2E0918360
:102CD000808312821682158214821382E8E1F2E068
:102CE0009183808312821682158214821382E1E11D
:102CF000F2E09183808312821682158214821382FD
:102D0000EBE0F2E0118210821582148213821282AB
:102D10000895789484B5826084BD84B5816084BD53
:102D200085B5826085BD85B5816085BD80916E0069
:102D3000816080936E00109281008091810082609A
:102D400080938100809181008160809381008091D7
:102D500080008160809380008091B10084608093C6
:102D6000B1008091B00081608093B00080917A00C2
:102D7000846080937A0080917A00826080937A00E8
:102D800080917A00816080937A0080917A008068D7
:102D900080937A001092C10081E08093FD018091C0
:102DA000660290916702892B11F10E9433122091E3
:102DB0004D0230914E0280914B0290914C02213293
:102DC00031050CF0FFC0B9016052710977FF02C0F4
:102DD0006F5F7F4F759567958357910997FD0196B2
:102DE00000E210E023E730E04FE855E0FEC020911C
:102DF0004D0230914E02C901079697FD0796B3E048
:102E000095958795BA95E1F720914B0230914C0248
:102E1000AC01429FC001439F900D529F900D112421
:102E20000E94AB1A9093670280936602892B09F087
:102E3000BCCF0E94331281E080935B0280935C02DE
:102E400081E090E090935A02809359029093580247
:102E5000809357021092540210925302109256021D
:102E60001092550262E070E084E392E00E94191231
:102E700063E070E08DE292E00E94191264E070E07D
:102E800086E292E00E94191265E070E08FE192E024
:102E90000E94191266E070E088E192E00E94191227
:102EA00067E070E081E192E00E94191264E372E051
:102EB0008BE092E00E947E126DE272E00E947E1230
:102EC00066E272E00E947E126FE172E00E947E1262
:102ED00068E172E00E947E1261E172E00E947E125F
:102EE00086E090E00E94AB1AEC01198218821D82E4
:102EF0001C821B821A8261E070E00E94531262E021
:102F000070E0CE010E94531263E070E0CE010E9497
:102F1000531264E070E0CE010E945312D093170266
:102F2000C093160283EE92E19093150280931402EF
:102F3000DD24D39490E0E92E90E0F92E00910D026B
:102F400010910E020115110509F43AC2F801C08171
:102F5000D1812881398137FD31C03327F901EB5800
:102F6000F54F8491F901EF59F54FC490F901E35BF6
:102F7000F54FB490BB2009F41BC281110E94720569
:102F8000EB2DF0E0EE0FFF1FE15DF54FA591B49141
:102F9000EC91CE2231E020E009F430E0832F922F33
:102FA0002A81222309F407C2892B41F46D817E8195
:102FB000EB81FC818881998109951A82F80104814D
:102FC0001581C0CFB9016054710977FF02C06F5FEE
:102FD0007F4F759567958255910997FD019600E49D
:102FE00010E022E530E04FE657E0959587950E9486
:102FF000C80D82E08093690280916402909165021D
:10300000892B09F4DFC08CE3809368021092FC01E5
:103010001092FB0110920802109207020E94FE0E0D
:1030200081E596E09093FA018093F90182E596E0BC
:103030009093F8018093F70180916F0287FD1EC085
:1030400061E00E94C90561E080916F020E949B05CA
:1030500061E070E080E090E00E941F0660E08091F7
:103060006F020E949B056AE070E080E090E00E94A1
:103070001F0661E080916F020E949B0580916402AF
:1030800090916502892B09F45CC120917C023091FA
:103090007D0240917E0250917F0260E074E284EFF5
:1030A00090E00E94831A2051310941095109569537
:1030B0004795379527952093B80064E08BE895E015
:1030C0000E94A91060914D02615087E492E00E9435
:1030D0005E1164E087E895E00E94A9108091690282
:1030E00064E1813009F460E187E492E00E945E11BE
:1030F00064E083E895E00E94A9108FE88093840241
:1031000080914B0290914C028038910509F032C1B8
:1031100080914D0290914E028034910509F03AC1A0
:1031200080916902813009F423C18FEC809384027D
:10313000C2E16AED87E492E00E945E116C2F87E4A1
:1031400092E00E945E1161E887E492E00E945E11C5
:103150006091840287E492E00E945E1169ED87E449
:1031600092E00E945E118091690261EF813009F462
:1031700062E287E492E00E945E1166E08DE795E0EE
:103180000E94A9108091640290916502892B09F434
:1031900005C12091800230918102409182025091BC
:1031A000830260E074E284EF90E00E94831A205171
:1031B000310941095109569547953795279520932F
:1031C000B80037CE61E080916D020E94C90561E0D0
:1031D00080916E020E94C90580916D02082E000C3C
:1031E000990BFC01E35BF54FE491F0E0EE0FFF1F5C
:1031F000ED5BF54F25913491309375022093740265
:10320000FC01EF59F54FE491E0937A0280916E0250
:10321000082E000C990BFC01E35BF54FE491F0E004
:10322000EE0FFF1FED5BF54FA591B491B0937702C0
:10323000A0937602FC01EF59F54FE491E0937B02F5
:103240008C91E82BEC938091620290916302892B20
:1032500009F434C0CFB7F8948091F601811127C0EA
:10326000E7E5FAE08491EBE6FAE09491E82FF0E0EC
:10327000EE0FFF1FE75CF54FA591B491EC91E923A8
:1032800021F461E08AE00E949B0561E08AE00E94EF
:10329000C9058CB580618CBD8CB580648CBD61E046
:1032A0008DE00E94C90561E08BE00E94C905809114
:1032B000F6018F5F8093F601CFBFBECE61E08091B3
:1032C0006B020E94C90561E080916C020E94C905F1
:1032D00080916B02082E000C990BFC01E35BF54F0B
:1032E000E491F0E0EE0FFF1FED5BF54F2591349177
:1032F0003093710220937002FC01EF59F54FE49175
:10330000E093780280916C02082E000C990BFC016E
:10331000E35BF54FE491F0E0EE0FFF1FED5BF54F3F
:10332000A591B491B0937302A0937202FC01EF597E
:10333000F54FE491E09379028C91E095E823EC93CA
:103340007BCE8091620290916302892B31F0809153
:103350008502909186020E94DE08E0917602F0914B
:103360007702908180917B02809589238083A5CE0E
:103370008FE9DCCE8036910569F480914D02909101
:103380004E02409739F480916902813029F08FEA2A
:1033900080938402C2E0CDCE80E1FACFE091760244
:1033A000F0917702808190917B02892B808341CDBF
:1033B00090E080E0F5CD892B09F400CEDA82FECDD5
:1033C000E114F10409F4BACD0E940000B7CD0F93C7
:1033D0001F93CF93DF9380910D0290910E02D0E066
:1033E000C0E020910B0230910C02C217D30740F4C9
:1033F000FC01048115810E94471B2196C801F1CF71
:103400008DE191E09093480280934702809166029B
:1034100090916702009731F0DF91CF911F910F914A
:103420000C94471BDF91CF911F910F910895BB27FB
:103430004A3031F4992322F4BDE2909581959F4F53
:103440000C94231ABB27FB015527AA27880F991F25
:10345000AA1FA41710F0A41B83955051B9F7A05DC3
:10346000AA3308F0A95DA193009779F7B111B19340
:103470001192CB010C943C1ADC01FC01672F719175
:103480007723E1F7329704C07C916D93708362914A
:10349000AE17BF07C8F308952F923F924F925F92E5
:1034A0006F927F928F929F92AF92BF92CF92DF9254
:1034B000EF92FF920F931F93CF93DF93CDB7DEB7B9
:1034C000CA1BDB0B0FB6F894DEBF0FBECDBF09944D
:1034D0002A88398848885F846E847D848C849B84A4
:1034E000AA84B984C884DF80EE80FD800C811B81B2
:1034F000AA81B981CE0FD11D0FB6F894DEBF0FBEE1
:10350000CDBFED010895A1E21A2EAA1BBB1BFD0140
:103510000DC0AA1FBB1FEE1FFF1FA217B307E407B2
:10352000F50720F0A21BB30BE40BF50B661F771F0A
:10353000881F991F1A9469F76095709580959095EA
:103540009B01AC01BD01CF010895EE0FFF1F059057
:10355000F491E02D09940F931F93CF93DF93823062
:10356000910510F482E090E0E0918902F0918A02E6
:1035700030E020E0B0E0A0E0309799F4211531056B
:1035800009F44AC0281B390B24303105D8F58A814B
:103590009B816115710589F1FB0193838283FE0193
:1035A00011C0408151810281138148175907E0F011
:1035B0004817590799F4109761F012960C931297D7
:1035C00013961C933296CF01DF91CF911F910F91EB
:1035D00008950093890210938A02F4CF21153105D2
:1035E00051F04217530738F0A901DB019A01BD01E0
:1035F000DF01F801C1CFEF01F9CF90938A028093E8
:103600008902CDCFFE01E20FF31F819391932250E7
:10361000310939832883D7CF2091870230918802DE
:10362000232B41F42091030130910401309388024F
:10363000209387022091010130910201211531056B
:1036400041F42DB73EB74091050150910601241B6E
:10365000350BE0918702F0918802E217F307A0F49E
:103660002E1B3F0B2817390778F0AC014E5F5F4FD8
:103670002417350748F04E0F5F1F50938802409380
:103680008702819391939FCFF0E0E0E09CCFCF93AE
:10369000DF930097E9F0FC01329713821282A09128
:1036A0008902B0918A02ED0130E020E01097A1F488
:1036B00020813181820F931F2091870230918802EF
:1036C0002817390709F061C0F0938802E093870258
:1036D000DF91CF910895EA01CE17DF07E8F54A811F
:1036E0005B819E0141155105B1F7E901FB83EA8336
:1036F00049915991C40FD51FEC17FD0761F48081E2
:1037000091810296840F951FE901998388838281B4
:1037100093819B838A83F0E0E0E012968D919C91E7
:1037200013970097B9F52D913C911197CD01029611
:10373000820F931F20918702309188022817390742
:1037400039F6309751F510928A0210928902B0939F
:103750008802A0938702BCCFD383C283408151816A
:10376000840F951FC817D90761F44E5F5F4F88819A
:103770009981480F591F518340838A819B8193838C
:1037800082832115310509F0B0CFF0938A02E093CE
:1037900089029ECFFD01DC01C0CF13821282D7CFF8
:1037A000B0E0A0E0E6EDFBE10C944E1A8C0100972E
:1037B00051F4CB010E94AB1A8C01C801CDB7DEB722
:1037C000E0E10C946A1AFC01E60FF71F9C012250FD
:1037D0003109E217F30708F49DC0D901CD91DC91BE
:1037E0001197C617D70798F0C530D10530F3CE0131
:1037F00004978617970708F3C61BD70B2297C19328
:10380000D1936D937C93CF010E94471BD6CF5B0170
:10381000AC1ABD0A4C018C0E9D1EA0918902B0917C
:103820008A02512C412CF12CE12C109731F580911A
:103830008702909188028815990509F05CC04616A8
:10384000570608F058C0809101019091020100973D
:1038500041F48DB79EB74091050150910601841B3C
:10386000950BE817F90708F055C0F0938802E0932C
:103870008702F90171836083A0CF8D919C9111978C
:1038800012966C90129713967C901397A815B90511
:1038900059F56C0142E0C40ED11CCA14DB0420F1BE
:1038A000AC014A195B09DA011296159780F0628221
:1038B000738251834083D9016D937C93E114F104A9
:1038C00071F0D7011396FC93EE93129776CF229660
:1038D0008C0F9D1FF90191838083F301EFCFF0934B
:1038E0008A02E093890269CF4816590608F42C0130
:1038F0007D01D3019ACFCB010E94AB1A7C010097C6
:1039000049F0AE01B8010E94921CC8010E94471BF9
:10391000870153CF10E000E050CF81E090E0F894B1
:103920000C94A91CFB01DC0102C001900D924150D6
:103930005040D8F70895DC0101C06D9341505040CC
:10394000E0F70895FB01DC0101900D920020E1F702
:10395000089515E0C6E4D5E004C0FE010E94A51A52
:0C3960002196C734D107C9F7F894FFCFB7
:10396C000100008B02800000000000930F660F1610
:10397C001271055F0F4C0F3D0F000000001C0B5324
:10398C00061612D60E27087105C10D990DB50DA995
:10399C000D290E7105E208C0119707E007E20CC56E
:0639AC000C4D0CEE0B00B7
:00000001FF
